:4000000000800020110000003D0500003D05000008B5044B1A6803F53F5302331A6000F095FA00BFFA46004010B5054C237833B9044B13B10448AFF300800123237010BD64
:400040004081FF1F00000000E40B0000084B10B51BB108490848AFF300800848036803B910BD074B002BFBD0BDE81040184700BF000000004481FF1FE40B0000C880FF1F34
:40008000000000002DE9F74F00F03CFD00F0C2FB00F036FB00F01CFB00F0B4FA00F0DCFA00F0E6FA00F0F6FA0A2000F041FB62B6834E00F017FC3446022000F0B9FB00232D
:4000C0003370307801282AD80130C0B200F0B0FB10216B2000F004F90A2000F029FB20216A2000F0FDF80A2000F022FB06211A2000F0F6F80A2000F01BFB00211C2000F0C2
:40010000EFF80A2000F014FB05211D2000F0E8F80A2000F00DFB237801332370D1E7694C694D0023DFF8AC8123702B7000F0B6FCDFF8A4A10023624FAAF8000033704FF06A
:400140003C0B3378002B5BD123783C20009300F0DFF8009B4FF0060909FB03F33A7808F8030023783B200192009300F0D1F8019A009B0BFB02F209FB0323434458703A781D
:4001800023783E200192009300F0C2F8019A009B0BFB02F209FB0323434498703A7823783D200192009300F0B3F8019A009B0BFB02F209FB03234344D8703A78237840204C
:4001C0000192009300F0A4F8019A009B0BFB02F209FB0323434418713A7823783F200192009300F095F8019A009B0BFB02F209FB03293B78C144013389F805003B70A0E790
:4002000000F04CFC314B80B2BAF80020188030492378101A21F813000133DBB2092B2370894645D900232B702B78092B4FF000033DD8DFF8A8A033703778AFBB287800F038
:400240005FFB384600F05CFB2B7819F813008AF8000000F055FB2B7839F81300000A8AF8000000F04DFB062230783C2343432978009202FB01334344D85D013700F040FBF3
:40028000062FDFF83CB0009AEED1632000F038FB692000F035FB612000F032FB9BF8003001338BF80030C7E72B780133BBE72370012000F035FC002000F032FC36E700BF40
:4002C0008081FF1F6981FF1F7C82FF1F7A82FF1F6A81FF1F8981FF1F7E82FF1F9082FF1F38B505460C4600F0B7F900F0C1F900F0D1F9284600F09EF900F010FA8207FBD54C
:40030000204600F097F900F009FA8307FBD538BD08B540F0800000F08DF900F0FFF98207FBD5002000F086F900F0F8F9C307FBD5BDE8084000F08AB9F8B572B6664A674D0E
:400340001378002443F004031370062606FB045300219A881868013400F03CFC082CF5D15F4B604A604D92E8030018605F489980002450F8041F04F1105303F1420221F08D
:40038000FF064333C9B20B4452005B000232934206D012F8027C12F801EC07F806E0F5E7A8420C44E5D1524A524C1378524D43F002031370137C514F43F002031374237894
:4003C000A2F5863243F040032370413A1378192643F0100313704A4B03CBC2F8400DC2F8441D93E8070003C52A80464A0C3303CB1060516003CB1061516103CBA2F55F6249
:40040000C2F8141EC2F8100E1378172143F0080313703D4B61221A700522A3F5F0631A803A4A18231370518033211371D1801372374B02221A70032108224FF040231A70C8
:4004400083F80012334B34491B780025DBB20B70324B1A8041F2512223F8022C3B784FF4F07003F0010343EA450500F06DFB013E05F003052FD0032DF0D1294B4FF480723D
:400480001A80284907221A70482000220A7088701A70022203F8032C234A244D137843F007031370184B81221A7003F5F723012204331A701E4B1F4A1B78DBB203F007010E
:4004C0001B09117053701C4B44221A7094E80F0007C52B80F8BDFEE7E8460040E80B0000605200402C08004880000048FCFFFF4703500140A0430040C0510040254200401A
:40050000340800481251004000480040824000400043004008010049A1460040224200400440004006400040A2430040B0430040CF0100496E5800407658004008B500F02E
:400540001DFB03680C2B00D1FEE7FEE780B51148114B0025C0B1A3F1100192C922460439161BB74204D051F8046F42F8046BF7E7114653F8046C8C1AA64202D041F8045BB6
:40058000F9E701381033E5E700F0FEFAFFF77AFDFEE700BF01000000500C0000104A114B10B41A60104A114C1368114843F4007313600023032B98BF54F823204FEA83012D
:4005C00088BF0C4A0133302B4250F3D10A4B1A780A4B1A700A4B064A10BC1A60FFF7ACBE0004FA050CED00E014ED00E0000000000080FF1F3D050000BC760040C080FF1FFB
:4006000008ED00E008B500F0A7FA094A137843F020031370937843F010039370D37843F01003D37000F09CFABDE8084000F07EBA9B640040034A13785B07FCD5024B1870FE
:40064000704700BF6D6400404E640040014B1878704700BF5E640040034A044913789B0601D50B78FAE770476E6400405E64004008B500F071FA064B1A7842F001021A7028
:400680001A7802F0FE021A70BDE8084000F068BA9E64004008B50B4A0B4913789B0601D50B78FAE700F058FA084B1A7842F001021A701A7802F0FE021A70BDE8084000F04E
:4006C0004FBA00BF6E6400405E6400409E64004008B5074B0F221A70FFF7DCFF054B064A1B78064B1B7800231370537008BD00BF8B6400406D6400408D6400406E640040BA
:4007000010B5054C23781BB9FFF7E2FF01232370BDE81040FFF776BF5C81FF1F034B1878013B1B78184300F0EF0070476E64004038B50446084DB4F5004F05D9286800F0F9
:4007400003FAA4F50044F6E7034B58686043BDE8384000F0F9B900BFCC80FF1F054A00F01F00126800F1100352F8230042F82310704700BF08ED00E000F01F0000F1604088
:40078000490100F56440C9B201707047144A137803F001031370937803F0FC039370114B1A7802F0CF021A701A7842F030021A701A7802F0F0021A701A7842F00F021A7036
:4007C000094A137843F00103137042F6DF63A2F80330A2F80530054B00221A70704700BF004F00400B4F0040014F0040034F0040074A137843F001031370137C43F0010332
:40080000137492F85D3B43F0010382F85D3B7047A343004008B505490B781BB9FFF7B6FF01230B70BDE80840FFF7E2BF5D81FF1F014B1870704700BF7D64004008B510493C
:400840000020FFF78BFF07210020FFF795FF0D4B00221A700C4B72221A7020225A700B490120FFF77BFF07210120FFF785FF084B06221A7047221A74022203F8A32C08BD2A
:40088000650900005E81FF1F89650040FD0900002B65004010B500F05FF904460D4A0E49137843F020031370537843F0100353700A4A012313600B7843F010030B7008490C
:4008C00002230B60136000F0C1F82046BDE8104000F046B9996500409864004000E100E080E200E010B5054C63781BB9FFF7A6FF01236370BDE81040FFF7CCBF5E81FF1FBB
:4009000010B5134CE379A279D2B2934202D2511E994201E0991A072914BF002101210029F1D193420B4A05D11178490702D40A4B187010BD082B094928BF0023C8540133A8
:40094000E37113789B0742BF054B02221A6010BD5E81FF1F68640040486400402283FF1F00E200E02DE9F0431C491D4C0A4625461C4E1D481D4FDFF87CE0DFF87CC03378C2
:40098000DBB213F01E091EBF90F8008049EA080880F800809B061ED597F800800B785FFA88F8DBB20EF80380237813B101238CF8003013780133DBB213701378072B84BF45
:4009C00000230B700A4B92F800801B789845D6D101232B70D3E7BDE8F08300BF6181FF1F6281FF1F6A6500405E81FF1F496500406081FF1F1A83FF1F6381FF1F0E4AF0B5DF
:400A000011460E4C0E480F4D0F4E137827789F4211D0037813F004030DD11778072F88BF13700B78DBB2EB5CDBB233700B780133DBB20B70E9E7F0BD6481FF1F6581FF1F4E
:400A4000686400402283FF1F48640040044A137843F004031370137C43F0040313747047A2430040024A137843F08003137070477C6400400146014800F076B82A64004096
:400A8000024B186820F07F40704700BF4A6400400146014800F068B80A640040034B1B78034B186820F07F40704700BF0A6400404A64004008B5044A13781B0702D5FFF7D3
:400AC000DFFFF9E708BD00BF6C64004008B540F2E730FFF7CFFF40F2E730FFF7D9FF00F03BF8064A137843F01003137000F038F8FFF7E0FF024B00221A7008BD9C64004009
:400B00008C64004010B5054C23781BB9FFF7DEFF01232370BDE81040FFF7A4BF6781FF1F014B1870704700BF79640040044A137843F001031370137C43F001031374704724
:400B4000A2430040000000000230800803D000BF01380046FCD17047EFF3108072B6704780F31088704700BFCBB20370C1F30723C1F307414370817070470000014B18683E
:400B8000704700BF3C81FF1F0E4B70B51E460E4C0025E41AA410A54204D056F8253098470135F8E700F03AF8084B094C1E46E41AA4100025A54204D056F825309847013507
:400BC000F8E770BD280C0000280C0000280C0000300C000003460244934202D003F8011BFAE7704700000000004F00400C00405100403000F05100401000000001400010AE
:400C000000140140000800400140000A004C0140000200500140200043000000F8B500BFF8BC08BC9E4670474D0000009D050000F8B500BFF8BC08BC9E4670472900000033
:400C4000500C0000C880FF1F78000000F0010000000000000000E02EC05D00001800000000366E010000000000000000000000000000000000000000000000000000000061
:400C800000000000180C0000000000000000000000000000000000000000000000000000000000000000000000000000000000000000000000000000000000000000000010
:400CC00000000000DC80FF1F00000000000000000000000000000000000000000000000000000000000000000000000000000000000000000000000000000000000000007A
:400D000000000000000000000000000000000000000000000000000000000000000000000000000000000000000000000000000000000000000000000000000000000000B3
:400D40000000000000000000000000000000000000000000000000000000000000000000000000000000000000000000000000000000000000000000000000000000000073
:400D80000000000000000000000000000000000000000000000000000000000000000000000000000000000000000000000000000000000000000000000000000000000033
:400DC00000000000000000000000000000000000000000000000000000000000000000000000000000000000000000000000000000000000000000000000000000000000F3
:020000040003F7
:0200000480007A
:40000000024F00400352004004640040026500400101014001030140010701404A0801403C090140620A01403E0B01404D0C0140470D0140530E0140390F01400115014079
:40004000021701405518014050190140531A0140481B01400440014007410140054201400443014008450140034601400848014006490140014C0140074D0140075001406A
:400080000151014001800A360180100C11187D03880F8B0F8C0D89728A38E440E601EC40030206010801110314011A011E011F01300131033E0140234101450C46EB480D30
:4000C00049FF4AFF4BFF4EF04F44500C54015604580459045A045B045C905D225F0166C06A406B028326853987048809893F8A068C068E098F0194069518980699089A090E
:400100009C049D10A119A201A322A402A527A718A80FA901AB40B140B207B31FB408B538B820BA08BB08D608D804D904DB04DC22DD90DF01020103040518062408400908E6
:400140000A080E220F0810201101120818201B101E8021042224234027C029242A0130E031083741390B3B603F0246264F08576059805C205D025E805F086302648069C0D6
:400180006F018A12910295D099809B089F10A402A720B210B380B580C063C2E7C40ECA07CC9ECE8FD070D6F8D888EC400502060108060901100311011204140516021901BD
:4001C0002102250231013207370238083F404043410149FF4AFF4BFF4F015018580459045A045C205D015F016040624064406540668068806A806C806E80800181108202F6
:4002000084028608880D89038B148C0D8D109310940D9501971A980299109A0D9C0D9D029F1DA00DA103A30CA402A520A604A910B11FB40FB520BA20BB02BF10C043C105D6
:40024000C9FFCAFFCBFFCD83CE03CF01D018D602D720D804D904DA04DB04DD01DF01E040E240E440E540E680E880EA80EC80EE800014042C050606010B900E2A150817014C
:40028000181019081E082181274829062D022F683002331034103504374139183C803D023F10414042A046A04D4059405B4065406C306D026E226F097440760190089108A6
:4002C0009390954098109AA09D089E019F01A420A581A780AC04B501C0F6C2ECC430CAE3CCF5CEB6D0CBD210D810EC020201260130013E014043410545EC4620480B49FF97
:400300004AFF4BFF4D834E034F0150185280540158045A045B045D115F056040624064406540668068806A806C806E808001811284108503871889028A068B108D028E017F
:40034000900A91209204940C950196029714980499129A089D109E089F02A001A112A401A520A810AC01AD03AF0CB010B20EB31FB520B601B802B928BE41BF10D409D804B8
:40038000D904DB04DF010010010802400381068008050A080B821070111212011620181019811A011E80200821042204231028412908302232043380388839203A0146A074
:4003C0004D45562059045A815B205D055E8061806802691076807D40801089108B018F109088928093829508980499049B209C509D809E419F01A310A780B408B701C01FB2
:40040000C20FC42FCA0BCC0FCE0FD0C0D210D6DFD808DE100102050108010F011001130217021A011D02210225022B0133023401370138203F44403641014250440245BE55
:4004400046FC470D481F49FF4AFF4BFF4C224EF04F0C50045440580459045A045B045F0162C0644065016610671168C069016B116C406D016E406F0180028101820183086D
:40048000880189048A028B098D099003910893019603980399089B049C039D019F02A001A109A202A509A801A90EAB01AC03B50FB603BB30D804D904DF01012004010520BA
:4004C000064008200B800C500D040F40160117211B101E011F40201022402408285429202B402C102D2130083381376139093A013BC03C013E103F80402441044211434012
:4005000049A44B024C044D2050485210601062106301804083208C04C052C2FAC4D0CAE7CCBBCEBBD00ED20CD80EE440E204E208EE020110061508030A1C0B030D14111C2F
:4005400013021403150916341710180319101A041B0C1C2A1E142628290C2B112E203238340F351F3A28580459045B045C225F0184018504860A89048C028E159004920ACD
:40058000930195049B01A407A504A807A902B007B104B301B418B502BE10BF15C034C106C205C402C5C0C60EC806C9FFCAFFCBFFCC62CDA0CEF0CF41D00CD602D713D804D2
:4005C000D904DA04DB04DC02DD22DF01E640E702E910EA30EB10ED10EE10EF12004805180A800E220F08111416021708184419021A401D101E201F042110220123202510CE
:40060000282029042A202F043101322C351036053708382039083A043D203E223F8240244103430449014A084B6052405A025F80680269146B1070A071087310841085108A
:400640008A208B409020910A951097209B809D3C9E019F14A220A354A4A2A508A619A820AB04AC80B102B320C065C2E8C4A6CA26CCE7CEB6D007D20CD611E002000201099A
:40068000031004010703080C09180A030E030F041003130314031503160C180F19181D121F082008210324042704280C29032C0F2F033103320F350437183A083B083F104D
:4006C00054185604580459045B045C225D205F018308870388079407970C980899019A019B069D0C9F03A901AB0EAC02AE04B003B10FB40CB82ABB02BE05C004C740C9FF33
:40070000CA07CBFFCC40CD20CEF0CF05D008D804D904DA04DC22DD02DF01E040E1A8E240E3200008028605100A680E200F0410A112011310178019041A201B041C201E08EB
:400740001F02200422C526012780280129022B142F0431023246331035103604378039123A443F06430347014D084F0457015A026004610163018101880489219110924048
:400780009319968899129A459B109D2CA0A0A102A210A310A414A605A701B410B601B721C04FC26EC48FCA2FCC7FCECFD080D601D80D308036408D20CC3060108010A48059
:4007C000A520A640D840E6801308A480A520A640C410A480A520A640B70856205F4060108C10D402D604D802E008AF40B620EC0267808740A480A520AE40D880E210EE4041
:400800000D208080A480A520C280E22087801010778088109B80C408DE04E204000701010C070D010E0310041C04000F80800000400000000080800080000000800040807B
:400840008000800000000000000B0B0000000000001C1C001C000000800000000000000000000000000000000000000000000000000000000000000000000000000000008E
:400880000000000000000000000000000000000000000000000000000000000000000000000000000000000000000000000000000000000000000000000000000000000038
:4008C00000000000000000000000000000000000000000000000000000000000000000000000000000000000000000000000000000000000000000000000000000000000F8
:4009000000000000000000000000000000000000000000000000000000000000000000000000000000000000000000000000000000000000000000000000000000000000B7
:400940000000000000000000000000000000000000000000000000000000000000000000000000000000000000000000000000000000000000000000000000000000000077
:0200000490006A
:0400000000004005B7
:0200000490105A
:04000000BC90ACAF55
:0200000490303A
:02000000F9FF06
:0200000490402A
:4000000000000000000000000000000000000000000000000000000000000000000000000000000000000000000000000000000000000000000000000000000000000000C0
:400040000000000000000000000000000000000000000000000000000000000000000000000000000000000000000000000000000000000000000000000000000000000080
:400080000000000000000000000000000000000000000000000000000000000000000000000000000000000000000000000000000000000000000000000000000000000040
:4000C0000000000000000000000000000000000000000000000000000000000000000000000000000000000000000000000000000000000000000000000000000000000000
:0200000490501A
:0C00000000012E16106900012E1D0A6878
:00000001FF