:400000000080002011000000890400008904000008B5044B1A6803F53F5302331A6000F03BFA00BFFA46004010B5054C237833B9044B13B10448AFF300800123237010BD28
:400040004081FF1F000000004C0B0000084B10B51BB108490848AFF300800848036803B910BD074B002BFBD0BDE81040184700BF000000004481FF1F4C0B0000C880FF1F64
:40008000000000002DE9F74F00F0E4FC00F06AFB00F0DEFA00F0C4FA00F05AFA00F084FA00F08EFA00F09EFA0A2000F0E9FA62B6564C00F0BFFB2546022000F061FB00233A
:4000C00023702078012816D80130C0B200F058FBA021102000F0AAF84021122000F0A6F8012000F0CDFAA021112000F09FF82B7801332B70E5E7464F464D0023DFF80C81F6
:400100003B702B7000F072FCDFF818A10023AAF8000023702678E6B94FF0060B217806F12800C0B2019197F8009000F097F801993C224A430BFB0929374B994409F8060029
:400140000136062EEAD198F80030013388F80030E0E700F04BFC314B80B2BAF8002018802F493B78101A21F813000133DBB2092B3B70894643D900232B702B78092B4FF0BF
:4001800000033BD8DFF8A0A0237026789EBB287800F05EFB304600F05BFB2B784FF0060B19F813008AF8000000F052FB2B7839F81300000A8AF8000000F04AFB20783C236E
:4001C00043432978144A0BFB01331344985D013600F03EFB062EF1D1632000F039FB692000F036FB612000F033FB98F80030013388F80030C9E72B780133BDE73B70012013
:4002000000F036FC002000F033FC7BE78081FF1F6981FF1F7C82FF1F8981FF1F7A82FF1F6A81FF1F7E82FF1F9082FF1F38B505460C4600F0B9F900F0C3F900F0D3F928461D
:4002400000F0A0F900F012FA8207FBD5204600F099F900F00BFA8307FBD538BD08B540F0800000F08FF900F001FA8207FBD5002000F088F900F0FAF9C307FBD5BDE8084050
:4002800000F08CB9F8B572B6664A674D1378002443F004031370062606FB045300219A881868013400F049FC092CF5D180225F495F4800F037FC5F4D5F48002450F8041FC2
:4002C00004F1105303F1480221F0FF064933C9B20B4452005B000232934206D012F8027C12F801EC07F806E0F5E7A8420C44E5D1524A534C1378534D43F002031370137CA0
:40030000514F43F0020313742378A2F5863243F040032370413A1378192643F0100313704A4B03CBC2F8400DC2F8441D93E8070003C52A80464A0C3303CB1060516003CB58
:400340001061516103CBA2F55F62C2F8141EC2F8100E1378002543F0080313703D4B61221A70A3F5F06358221D809A7017229A80394A18233321137051801371374B02227B
:400380001A70032108224FF040231A7083F80012334B34491B78DBB20B70334B1A8041F2512223F8022C3B784FF4F07003F0010343EA450500F070FB013E05F003052FD0B5
:4003C000032DF0D1294B4FF480721A80284907221A70482000220A7088701A70022203F8032C244A244D137843F007031370194B81221A7003F5F723012204331A701F4BB6
:400400001F4A1B78DBB203F007011B09117053701C4B44221A7094E80F0007C52B80F8BDFEE700BFE8460040500B000070070048001A01408C000048FCFFFF470350014092
:40044000A0430040C051004025420040F00700481251004000480040864000400043004008010049A1460040224200400440004006400040A2430040B0430040CF010049D6
:400480006E5800407658004008B500F01FFB03680C2B00D1FEE7FEE780B51148114B0025C0B1A3F1100192C922460439161BB74204D051F8046F42F8046BF7E7114653F81C
:4004C000046C8C1AA64202D041F8045BF9E701381033E5E700F000FBFFF7D4FDFEE700BF01000000BC0B0000104A114B10B41A60104A114C1368114843F40073136000238F
:40050000032B98BF54F823204FEA830188BF0C4A0133302B4250F3D10A4B1A780A4B1A700A4B064A10BC1A60FFF7ACBE0004FA050CED00E014ED00E0000000000080FF1FFC
:4005400089040000BC760040C080FF1F08ED00E008B500F0A9FA0A4A137843F02003137012F8033C43F0100302F8033C537843F01003537000F09CFABDE8084000F07EBA0A
:400580009D640040034A13785B07FCD5024B1870704700BF6A6400404D640040014B1878704700BF5D640040034A044913789B0601D50B78FAE770476E6400405D64004088
:4005C00008B500F071FA064B1A7842F001021A701A7802F0FE021A70BDE8084000F068BA9D64004008B50B4A0B4913789B0601D50B78FAE700F058FA084B1A7842F00102CB
:400600001A701A7802F0FE021A70BDE8084000F04FBA00BF6E6400405D6400409D64004008B5074B0F221A70FFF7DCFF054B064A1B78064B1B7800231370137108BD00BFC9
:400640008D6400406A6400408A6400406E64004010B5054C23781BB9FFF7E2FF01232370BDE81040FFF774BF5C81FF1F034B1878043B1B78184300F0EF0070476E6400401C
:4006800038B50446084DB4F5004F05D9286800F003FAA4F50044F6E7034B58686043BDE8384000F0F9B900BFCC80FF1F054A00F01F00126800F1100352F8230042F8231052
:4006C000704700BF08ED00E000F01F0000F16040490100F56440C9B201707047144A137803F001031370937803F0FC039370114B1A7802F0CF021A701A7842F030021A706B
:400700001A7802F0F0021A701A7842F00F021A70094A137843F00103137042F6DF63A2F80330A2F80530054B00221A70704700BF004F00400B4F0040014F0040034F0040EF
:40074000074A137843F001031370137C43F00103137492F85D3B43F0010382F85D3B7047A343004008B505490B781BB9FFF7B6FF01230B70BDE80840FFF7E2BF5D81FF1F22
:40078000014B1870704700BF7E64004008B510490020FFF78BFF07210020FFF795FF0D4B00221A700C4B72221A7020225A700B490120FFF77BFF07210120FFF785FF084BC5
:4007C00006221A7047221A74022203F8A02C08BDB50800005E81FF1F896500404D0900002965004010B500F05FF904460D4A0E49137843F020031370537843F01003537057
:400800000A4A012313600B7843F010030B70084902230B60136000F0C1F82046BDE8104000F046B9996500409964004000E100E080E200E010B5054C63781BB9FFF7A6FF64
:4008400001236370BDE81040FFF7CCBF5E81FF1F10B5134CE379A279D2B2934202D2511E994201E0991A072914BF002101210029F1D193420B4A05D11178490702D40A4B33
:40088000187010BD082B094928BF0023C8540133E37113789B0742BF054B02221A6010BD5E81FF1F69640040496400402283FF1F00E200E02DE9F0431C491D4C0A46254679
:4008C0001C4E1D481D4FDFF87CE0DFF87CC03378DBB213F01E091EBF90F8008049EA080880F800809B061ED597F800800B785FFA88F8DBB20EF80380237813B101238CF8D9
:40090000003013780133DBB213701378072B84BF00230B700A4B92F800801B789845D6D101232B70D3E7BDE8F08300BF6181FF1F6281FF1F6A6500405E81FF1F4A65004058
:400940006081FF1F1A83FF1F6381FF1F0E4AF0B511460E4C0E480F4D0F4E137827789F4211D0037813F004030DD11778072F88BF13700B78DBB2EB5CDBB233700B780133E2
:40098000DBB20B70E9E7F0BD6481FF1F6581FF1F696400402283FF1F49640040044A137843F004031370137C43F0040313747047A2430040024A137843F080031370704765
:4009C0007C6400400146014800F076B82A640040024B186820F07F40704700BF4A6400400146014800F068B80A640040034B1B78034B186820F07F40704700BF0A6400406B
:400A00004A64004008B5044A13781B0702D5FFF7DFFFF9E708BD00BF6C64004008B56FF07F40FFF7CFFF6FF07F40FFF7D9FF00F03BF8064A137843F01003137000F038F87F
:400A4000FFF7E0FF024B00221A7008BD9C6400408C64004010B5054C23781BB9FFF7DEFF01232370BDE81040FFF7A4BF6781FF1F014B1870704700BF79640040044A1378D0
:400A800043F001031370137C43F0010313747047A2430040000000000230800803D000BF01380046FCD17047EFF3108072B6704780F31088704700BFCBB20370C1F3072364
:400AC000C1F307414370817070470000014B1868704700BF3C81FF1F0E4B70B51E460E4C0025E41AA410A54204D056F8253098470135F8E700F048F8084B094C1E46E41AE3
:400B0000A4100025A54204D056F8253098470135F8E770BD940B0000940B0000940B00009C0B000010B5431E0A44914204D011F8014B03F8014FF8E710BD0346024493420E
:400B400002D003F8011BFAE77047000000000000004F00400C00405100403000F05100401000000001400010001401400006801A0140800100400140000A004C01400002A5
:400B80000050014020004300F8B500BFF8BC08BC9E4670474D000000E9040000F8B500BFF8BC08BC9E46704729000000C00B0000C880FF1F78000000F00100000000000046
:400BC000000000000000E02EC05D00001800000000366E010000000000000000000000000000000000000000000000000000000000000000860B000000000000000000007C
:400C000000000000000000000000000000000000000000000000000000000000000000000000000000000000000000000000000000000000DC80FF1F00000000000000003A
:400C40000000000000000000000000000000000000000000000000000000000000000000000000000000000000000000000000000000000000000000000000000000000074
:400C80000000000000000000000000000000000000000000000000000000000000000000000000000000000000000000000000000000000000000000000000000000000034
:400CC00000000000000000000000000000000000000000000000000000000000000000000000000000000000000000000000000000000000000000000000000000000000F4
:400D000000000000000000000000000000000000000000000000000000000000000000000000000000000000000000000000000000000000000000000000000000000000B3
:020000040003F7
:0200000480007A
:40000000024F0040055200400464004002650040010301400105014001070140520801403C090140610A01403B0B01405A0C0140400D0140430E0140300F01400414014080
:400040000315014001170140511801403B1901400E1A0140491B0140034001400541014006420140044301400344014007450140024601400247014005480140094901401C
:40008000014C0140074D0140075001400151014001800A36008001801014618064407E03890F8C0D8D0F89728A38E280E880E820080A0A041103140316041C031E041F01E4
:4000C0002003220C26052E082F023103360F3A80580459045B045C925F018011812082068303846089148A088D108F0C9011920E946095109A139C209D099E409F10A040A3
:40010000A220A40CA613A91CAA10AB02AD0CAE0CAF11B060B11FB40FB520B610BA20BB08BE40BF10C053C101C5EEC6B0C70CC81BC9FFCAFFCBFFCEF0CF44D00CD401D60422
:40014000D804D904DA04DB04DC22DD22DF01E6C0EA40EB02010502080380051008A20A200C080D800E1010091250142115011740188019901E021FC02008210927802802B4
:4001800029102A102F01320833403781382039023B804022418049094A01501859815A185F80620269C06F0188049208930295C09D08AB12B080C04EC2AFC4BFCA1CCC9AA9
:4001C000CE0DD00AD208D61FD801E8200102020103100503070C0A010D121101120213141510170219121C021D122002210323182402252028022C012D023002311F3320F2
:400200003402360139023E513F044053410149FF4AFF4BFF4F0150185409580459045A045B045D015F016040624064406540668068806A806C806E808001810384018D0116
:400240008F029001930395039D03A101A302A503A902AB01AD01B503B601BE40C013C105C9FFCAFFCBFFCD83CE03CF01D018D608D804D904DA04DB04DD91DF01E040E2407C
:40028000E440E540E680E880EA80EC80EE800384040805020A410D0210A8128219611D802102220624082704290A2B822C282F8230A8320236823704380839023B803E4151
:4002C000414142604620474048014D4059455B105C806180670292419380954099049A209B409D209F04A0A9A382A602B330C03AC219C40FCAFBCCDFCE9BD05AD218D61F18
:40030000D818E8800006020103010B010C020E041603240526022E04320737013F404013410545EC4620480B49FF4AFF4BFF4D834E034F01501852805401580459045A042B
:400340005B045D115F056040624064406540668068806A806C806E808001821A8402861D88038A0C92109C10A010A410A810AC03AE14B41FBA20C051C103C260C402C50EB0
:40038000C6FBC7CDC83DC9FFCAFFCBFFCC22CEF0CF0CD004D602D724D804DA04DB04DF01E2C0E440E501E610E711E8C0E901EB11EC40ED01EE40EF0100040240038406416D
:4003C0000A410E2010A812031580170418041E2026402E012F403C023E2043A44620474049244A024D414F04500151485210530256205D015E805F046004686869026A419F
:400400006B017080740177407D408A1093109402950296409E109F05A380A4E8A508A602A801A908C09EC229C4AFCEA0D05ED21CD6D0D804DE10E2800406080309020A0441
:400440000C0812081304150416081D011E01200821042408250328082C052E02310232073304340835013808392A3E103F115440580459045B045F01800881028204830813
:40048000880189028A028B0D8C088D0D8E01900E910292019304940195019608970298099C09A009A10DA50DA90DAC04AD0DAE09B50FB60FBAC0BB20D804D904DF0100806D
:4004C000010803040402070509080A410CA80F8010A812031502160119081B101E011F80210222202310251029082BC02CA82E40324233043602370439103C803D203E014C
:4005000060016210632069106A8085028E20C0D7C2FDC49FCAF3CCCBCEB4D80EE00238203E1058045F011A048604E602EE2001040318050809180D01111015021B041F01A3
:400540002101251C29182B042D182F043103351C39023B2059045C205F018408850889088C088D608F0391089408970298089B109C019E029F06A004A160A202A305A40788
:40058000A721A807A946AB01AC02AE05AF10B008B110B207B360B508B707B908BB80BE01BF05C003C704C9FFCA07CBFFCC40CD20CEF0CF05D008D602D713D804D904DA041D
:4005C000DB04DC22DD22DF01E040E1A8E240E32003220882091A0B281154124019011B0421D6222025102740282029542B802F96302032083341350436A0370239943A80A5
:400600003E803F16410449045208590169146A206B017080731E8B218D108E8090809504962099109CA09E409F40A108A380A580A608B202C005C207C40FCAFFCCFFCEFE01
:40064000D002D601EE20860188078C018E069007940698029C04A806AA01B607D804DC02DF0101100240032204400510071009010A050B200C800E400F1410801140131C38
:4006800015101A411B221DC020042104220123022A082B86310832013320388839103A403D3040404194420C431049104B20502053805B02600663408040832087408C84E0
:4006C0008D418F04908091209330954098029B089C809D409E40A080A118A304A420A722C0EFC2FFC44FCA0FCC07CE0ED00FD204D601D80D30103780CC3067088B049C1006
:400700009F80D88013029C109F80A701B301C4109C109F80A701B30286108C04E008500456105E0190089A10D406D601B201EC018B40E00467049C10A701B380D8800F0246
:400740008410870497049C10A701C280E240E6409340122073408E209340C408DC01E208000701010C070D010E0310041C04000F40000000670118047900021319026404C2
:40078000210080207F1300000013660000000100100000200800000318030008600000131F10000C782080030002220000000014420601000300CE000CFFFFFF62A0F041B7
:4007C0000C000000180004000404040422220001000000000000400200103010001010120000000000000000000000000000000000808000800000008000408080008000F8
:4008000000000000000B0B0000000000001C1C001C0000008000000000000000000000000000000000000000000000000000000000000000000000000000000000000000CE
:400840000000000000000000000000000000000000000000000000000000000000000000000000000000000000000000000000000000000000000000000000000000000078
:400880000000000000000000000000000000000000000000000000000000000000000000000000000000000000000000000000000000000000000000000000000000000038
:4008C00000000000000000000000000000000000000000000000000000000000000000000000000000000000000000000000000000000000000000000000000000000000F8
:4009000000000000000000000000000000000000000000000000000000000000000000000000000000000000000000000000000000000000000000000000000000000000B7
:0200000490006A
:0400000000004005B7
:0200000490105A
:04000000BC90ACAF55
:0200000490303A
:02000000A23B21
:0200000490402A
:4000000000000000000000000000000000000000000000000000000000000000000000000000000000000000000000000000000000000000000000000000000000000000C0
:400040000000000000000000000000000000000000000000000000000000000000000000000000000000000000000000000000000000000000000000000000000000000080
:400080000000000000000000000000000000000000000000000000000000000000000000000000000000000000000000000000000000000000000000000000000000000040
:4000C0000000000000000000000000000000000000000000000000000000000000000000000000000000000000000000000000000000000000000000000000000000000000
:0200000490501A
:0C00000000012E16106900012E1CB2A495
:00000001FF